:0300000002008A71
:10000B000200C1A930E78531F045F0F722E531F464
:0F001B00A93057F72274502532F8E675F002A489
:0F002A00F53174402532F8E6F530E53204540F15
:0F003900F53274502532F8E531F674402532F86F
:10004800E530F612000E74502533F8E6F5317440A9
:100058002533F8E6F530120018E53304540FF5336C
:0E00680022752920752880A8297590008680B1
:10007600852890088829E52875F00284F528E52961
:10008600B428E62275A07075230C752404754223E6
:0F00960075520875412375510475402475500447
:0F00A500753202753300753401753501758901A7
:0F00B400758CF8758A0075A882D28C803AC0E0EE
:0E00C300C0D0C0F0C000C001758CF8758A0076
:1000D100D5341C753401E535B40105120020800FBB
:0F00E100B40202800AB403028005B40402800056
:1000F000D0D0D0E0D0F0D000D00132120069E5A01D
:10010000B4700575350180F3B4E00575350280EBF8
:10011000B4B00575350380E3B4D0E075350480DBF9
:0201200080FE5F
:00000001FF
