:0F000000807CA930E78531F045F0F722E531F437
:0F000F00A93057F72274502532F8E675F002A495
:0F001E00F53174402532F8E6F530E53204540F21
:0F002D00F53274502532F8E531F674402532F87B
:10003C00E530F612000274502533F8E6F5317440C1
:10004C002533F8E6F53012000CE53304540FF53384
:0E005C0022752920752880A8297590008680BD
:10006A00852890088829E52875F00284F528E5296D
:10007A00B428E62275230C752404754223755208A8
:0F008A0075412375510475402475500475320279
:0F009900753300800012001412005D80F880FEA5
:00000001FF
