:0300000002017585
:10000B000201A9A930E78531F045F0F722E531F47B
:0F001B00A93057F72274502532F8E675F002A489
:0F002A007003020211F53174402532F8E6F5300B
:0F003900E53204540FF53274502532F8E531F6F4
:1000480074402532F8E530F612000E74502533F866
:10005800E6F53174402533F8E6F530120018E5333B
:1000680004540FF5332274502532F8E675F00284F3
:0F0078007003020211F53174402532F8E6F530BD
:0F008700E53204540FF53274502532F8E531F6A6
:1000960074402532F8E530F612000E74502533F818
:1000A600E6F53174402533F8E6F530120018E533ED
:1000B60004540FF5332274502532F8E6F5317440B6
:1000C6002532F8E604B42803020211F530E53204BD
:1000D600540FF53274502532F8E531F67440253266
:0F00E600F8E530F612000E74502533F8E6F531C8
:1000F50074402533F8E6F530120018E53304540F43
:10010500F5332274502532F8E6F53174402532F87E
:0F011500E614B41F03020211F530E53204540F53
:0F012400F53274502532F8E531F674402532F883
:10013300E530F612000E74502533F8E6F5317440BD
:100143002533F8E6F530120018E53304540FF53380
:0E01530022752920752880A8297590008680C5
:10016100852890088829E52875F00284F528E52975
:10017100B428E62275A0F075230C7524047542237A
:0F0181007552087541237551047540247550045B
:0F019000753202753300753401758901758CF86D
:10019F00758A0075A882D28C8043C0E0C0D0C0F0B1
:1001AF00C000C001758CF8758A00D53425753401EF
:1001BF00E535B401051200208018B4020512006E57
:1001CF008010B403051200BC8008B40405120108A6
:1001DF008000D001D000D0F0D0D0D0E03212015446
:1001EF00E5A0B4700575350180F3B4E005753502EF
:1001FF0080EBB4B00575350380E3B4D0E0753504FA
:10020F0080DBC28C752081752142752224752318DD
:0F021F0075241875252475264275278112015400
:02022E0080FB53
:00000001FF
