:0300000002015F9B
:10000B00020199A930E78531F045F0F722E531F48B
:0F001B00A93057F72274502532F8E675F002A489
:0F002A00F53174402532F8E6F530E53204540F15
:0F003900F53274502532F8E531F674402532F86F
:10004800E530F612000E74502533F8E6F5317440A9
:100058002533F8E6F530120018E53304540FF5336C
:0F0068002274502532F8E675F00284F5317440A9
:0F0077002532F8E6F530E53204540FF5327450B7
:0E0086002532F8E531F674402532F8E530F603
:1000940012000E74502533F8E6F53174402533F818
:1000A400E6F530120018E53304540FF5332274508A
:0F00B4002532F8E6F53174402532F8E604F530D0
:0F00C300E53204540FF53274502532F8E531F66A
:1000D20074402532F8E530F612000E74502533F8DC
:1000E200E6F53174402533F8E6F530120018E533B1
:1000F20004540FF5332274502532F8E6F53174407A
:100102002532F8E614F530E53204540FF532745016
:0E0112002532F8E531F674402532F8E530F676
:1001200012000E74502533F8E6F53174402533F88B
:0E013000E6F530120018E53304540FF53322C3
:10013E00752920752880A8297590008680852890BD
:10014E00088829E52875F00284F528E529B428E603
:10015E002275A0F075350175360175230C752404D2
:0F016E007542237552087541237551047540245D
:0F017D00755004753202753300753401758901B0
:0F018C00758CF8758A0075A882D28C8076C0E0D9
:0E019B00C0D0C0F0C000C001758CF8758A009D
:1001A900D53458753401E536B40107E535B402266E
:1001B9008027E536B40207E535B4011A801BE53618
:0F01C900B40307E535B4040E800FE536B4040A1D
:0F01D800E535B403028003853635E535B40105FE
:1001E7001200208018B402051200698010B40305BC
:0F01F7001200B28008B404051200F88000D00195
:0E020600D000D0F0D0D0D0E03212013EE5A002
:10021400B4700575360180F3B4E00575360280EBE1
:10022400B4B00575360380E3B4D0E075360480DBE2
:0202340080FE4A
:00000001FF
