:0E000000800075230C75240475422375520888
:0F000E00754123755104754024755004753202F5
:0F001D00753300805BA930E78531F045F0F7229D
:0E002C00E531F4A93057F72274502532F8E67A
:10003A0075F002A4F53174402532F8E6F530E53260
:0F004A0004540FF53274502532F8E531F6744046
:0F0059002532F8E530F612002274502533F8E610
:10006800F53174402533F8E6F53012002CE53304F9
:10007800540FF5332212003412008580F8752920B8
:10008800752880A829759000868085289008882979
:0F009800E52875F00284F528E529B428E6222230
:0200A70080FED9
:00000001FF
