:0E000000800075230E7524027532238523338C
:10000E007534247535028031A930E78531F045F01D
:0E001E00F722A930E78531F095F0F722E5339F
:0E002C0075F002A44533F5338533318532304B
:10003A00120016853531853430120020221200163E
:0F004A00120020800280F6752920752880800022
:0F005900A8297590008680852890088829E528B9
:0F00680075F00284F52812002A12007702005961
:0F007700E529B42807752880752920222280FEEC
:00000001FF
